{
  "_format": "hh-sol-artifact-1",
  "contractName": "Mortgage",
  "sourceName": "contracts/Mortgage.sol",
  "abi": [
    {
      "inputs": [
        {
          "internalType": "address",
          "name": "_borrower",
          "type": "address"
        },
        {
          "internalType": "uint256",
          "name": "_loanAmount",
          "type": "uint256"
        }
      ],
      "stateMutability": "nonpayable",
      "type": "constructor"
    },
    {
      "inputs": [
        {
          "internalType": "address",
          "name": "",
          "type": "address"
        }
      ],
      "name": "balances",
      "outputs": [
        {
          "internalType": "uint256",
          "name": "",
          "type": "uint256"
        }
      ],
      "stateMutability": "view",
      "type": "function"
    },
    {
      "inputs": [],
      "name": "borrower",
      "outputs": [
        {
          "internalType": "address",
          "name": "",
          "type": "address"
        }
      ],
      "stateMutability": "view",
      "type": "function"
    },
    {
      "inputs": [
        {
          "internalType": "address",
          "name": "account",
          "type": "address"
        }
      ],
      "name": "getBalance",
      "outputs": [
        {
          "internalType": "uint256",
          "name": "",
          "type": "uint256"
        }
      ],
      "stateMutability": "view",
      "type": "function"
    },
    {
      "inputs": [],
      "name": "lender",
      "outputs": [
        {
          "internalType": "address",
          "name": "",
          "type": "address"
        }
      ],
      "stateMutability": "view",
      "type": "function"
    },
    {
      "inputs": [],
      "name": "loanAmount",
      "outputs": [
        {
          "internalType": "uint256",
          "name": "",
          "type": "uint256"
        }
      ],
      "stateMutability": "view",
      "type": "function"
    },
    {
      "inputs": [],
      "name": "loanPaid",
      "outputs": [
        {
          "internalType": "bool",
          "name": "",
          "type": "bool"
        }
      ],
      "stateMutability": "view",
      "type": "function"
    },
    {
      "inputs": [],
      "name": "payLoan",
      "outputs": [],
      "stateMutability": "payable",
      "type": "function"
    }
  ],
  "bytecode": "0x608060405234801561001057600080fd5b5060405161088838038061088883398181016040528101906100329190610176565b33600160006101000a81548173ffffffffffffffffffffffffffffffffffffffff021916908373ffffffffffffffffffffffffffffffffffffffff16021790555081600260006101000a81548173ffffffffffffffffffffffffffffffffffffffff021916908373ffffffffffffffffffffffffffffffffffffffff160217905550806003819055506000600460006101000a81548160ff02191690831515021790555050506101b6565b600080fd5b600073ffffffffffffffffffffffffffffffffffffffff82169050919050565b600061010d826100e2565b9050919050565b61011d81610102565b811461012857600080fd5b50565b60008151905061013a81610114565b92915050565b6000819050919050565b61015381610140565b811461015e57600080fd5b50565b6000815190506101708161014a565b92915050565b6000806040838503121561018d5761018c6100dd565b5b600061019b8582860161012b565b92505060206101ac85828601610161565b9150509250929050565b6106c3806101c56000396000f3fe6080604052600436106100705760003560e01c80639d585f7f1161004e5780639d585f7f146100e7578063b2a2413b14610112578063bcead63e1461013d578063f8b2cb4f1461016857610070565b806327e235e314610075578063472eb03d146100b25780637df1f1b9146100bc575b600080fd5b34801561008157600080fd5b5061009c60048036038101906100979190610477565b6101a5565b6040516100a991906104bd565b60405180910390f35b6100ba6101bd565b005b3480156100c857600080fd5b506100d1610367565b6040516100de91906104e7565b60405180910390f35b3480156100f357600080fd5b506100fc61038d565b60405161010991906104bd565b60405180910390f35b34801561011e57600080fd5b50610127610393565b604051610134919061051d565b60405180910390f35b34801561014957600080fd5b506101526103a6565b60405161015f91906104e7565b60405180910390f35b34801561017457600080fd5b5061018f600480360381019061018a9190610477565b6103cc565b60405161019c91906104bd565b60405180910390f35b60006020528060005260406000206000915090505481565b600260009054906101000a900473ffffffffffffffffffffffffffffffffffffffff1673ffffffffffffffffffffffffffffffffffffffff163373ffffffffffffffffffffffffffffffffffffffff161461024d576040517f08c379a000000000000000000000000000000000000000000000000000000000815260040161024490610595565b60405180910390fd5b6003543414610291576040517f08c379a000000000000000000000000000000000000000000000000000000000815260040161028890610601565b60405180910390fd5b600460009054906101000a900460ff16156102e1576040517f08c379a00000000000000000000000000000000000000000000000000000000081526004016102d89061066d565b60405180910390fd5b6001600460006101000a81548160ff021916908315150217905550600160009054906101000a900473ffffffffffffffffffffffffffffffffffffffff1673ffffffffffffffffffffffffffffffffffffffff166108fc349081150290604051600060405180830381858888f19350505050158015610364573d6000803e3d6000fd5b50565b600260009054906101000a900473ffffffffffffffffffffffffffffffffffffffff1681565b60035481565b600460009054906101000a900460ff1681565b600160009054906101000a900473ffffffffffffffffffffffffffffffffffffffff1681565b60008060008373ffffffffffffffffffffffffffffffffffffffff1673ffffffffffffffffffffffffffffffffffffffff168152602001908152602001600020549050919050565b600080fd5b600073ffffffffffffffffffffffffffffffffffffffff82169050919050565b600061044482610419565b9050919050565b61045481610439565b811461045f57600080fd5b50565b6000813590506104718161044b565b92915050565b60006020828403121561048d5761048c610414565b5b600061049b84828501610462565b91505092915050565b6000819050919050565b6104b7816104a4565b82525050565b60006020820190506104d260008301846104ae565b92915050565b6104e181610439565b82525050565b60006020820190506104fc60008301846104d8565b92915050565b60008115159050919050565b61051781610502565b82525050565b6000602082019050610532600083018461050e565b92915050565b600082825260208201905092915050565b7f4f6e6c7920626f72726f7765722063616e2070617920746865206c6f616e0000600082015250565b600061057f601e83610538565b915061058a82610549565b602082019050919050565b600060208201905081810360008301526105ae81610572565b9050919050565b7f496e636f7272656374206c6f616e20616d6f756e740000000000000000000000600082015250565b60006105eb601583610538565b91506105f6826105b5565b602082019050919050565b6000602082019050818103600083015261061a816105de565b9050919050565b7f4c6f616e20616c72656164792070616964000000000000000000000000000000600082015250565b6000610657601183610538565b915061066282610621565b602082019050919050565b600060208201905081810360008301526106868161064a565b905091905056fea2646970667358221220c4a41df53c0bc84273fba78823d803e8a1c68e3da6e973da06501cd8eedfd14864736f6c634300081c0033",
  "linkReferences": {},
  "deployedLinkReferences": {}
}